{
  "contractName": "ParcelTracking",
  "abi": [
    {
      "anonymous": false,
      "inputs": [
        {
          "indexed": false,
          "internalType": "uint256",
          "name": "id",
          "type": "uint256"
        },
        {
          "indexed": false,
          "internalType": "string",
          "name": "status",
          "type": "string"
        },
        {
          "indexed": false,
          "internalType": "string",
          "name": "location",
          "type": "string"
        }
      ],
      "name": "ParcelUpdated",
      "type": "event"
    },
    {
      "inputs": [],
      "name": "parcelCount",
      "outputs": [
        {
          "internalType": "uint256",
          "name": "",
          "type": "uint256"
        }
      ],
      "stateMutability": "view",
      "type": "function"
    },
    {
      "inputs": [
        {
          "internalType": "uint256",
          "name": "",
          "type": "uint256"
        }
      ],
      "name": "parcels",
      "outputs": [
        {
          "internalType": "uint256",
          "name": "id",
          "type": "uint256"
        },
        {
          "internalType": "string",
          "name": "sender",
          "type": "string"
        },
        {
          "internalType": "string",
          "name": "receiver",
          "type": "string"
        },
        {
          "internalType": "string",
          "name": "currentLocation",
          "type": "string"
        },
        {
          "internalType": "string",
          "name": "status",
          "type": "string"
        }
      ],
      "stateMutability": "view",
      "type": "function"
    },
    {
      "inputs": [
        {
          "internalType": "string",
          "name": "_sender",
          "type": "string"
        },
        {
          "internalType": "string",
          "name": "_receiver",
          "type": "string"
        }
      ],
      "name": "addParcel",
      "outputs": [],
      "stateMutability": "nonpayable",
      "type": "function"
    },
    {
      "inputs": [
        {
          "internalType": "uint256",
          "name": "_id",
          "type": "uint256"
        },
        {
          "internalType": "string",
          "name": "_status",
          "type": "string"
        },
        {
          "internalType": "string",
          "name": "_location",
          "type": "string"
        }
      ],
      "name": "updateParcel",
      "outputs": [],
      "stateMutability": "nonpayable",
      "type": "function"
    },
    {
      "inputs": [
        {
          "internalType": "uint256",
          "name": "_id",
          "type": "uint256"
        }
      ],
      "name": "getParcel",
      "outputs": [
        {
          "components": [
            {
              "internalType": "uint256",
              "name": "id",
              "type": "uint256"
            },
            {
              "internalType": "string",
              "name": "sender",
              "type": "string"
            },
            {
              "internalType": "string",
              "name": "receiver",
              "type": "string"
            },
            {
              "internalType": "string",
              "name": "currentLocation",
              "type": "string"
            },
            {
              "internalType": "string",
              "name": "status",
              "type": "string"
            }
          ],
          "internalType": "struct ParcelTracking.Parcel",
          "name": "",
          "type": "tuple"
        }
      ],
      "stateMutability": "view",
      "type": "function"
    }
  ],
  "bytecode": "0x60806040525f8055348015610012575f80fd5b50611115806100205f395ff3fe608060405234801561000f575f80fd5b5060043610610054575f3560e01c8062858df2146100585780634d0434f21461007457806390efc8fc146100a4578063a0fa8ede146100c0578063baf65743146100f4575b5f80fd5b610072600480360381019061006d9190610922565b610112565b005b61008e600480360381019061008991906109cb565b61026b565b60405161009b9190610b07565b60405180910390f35b6100be60048036038101906100b99190610b27565b6104df565b005b6100da60048036038101906100d591906109cb565b610558565b6040516100eb959493929190610c06565b60405180910390f35b6100fc6107a2565b6040516101099190610c73565b60405180910390f35b5f8081548092919061012390610cb9565b91905055506040518060a001604052805f5481526020018381526020018281526020016040518060400160405280600981526020017f57617265686f757365000000000000000000000000000000000000000000000081525081526020016040518060400160405280600781526020017f437265617465640000000000000000000000000000000000000000000000000081525081525060015f805481526020019081526020015f205f820151815f015560208201518160010190816101e99190610efa565b5060408201518160020190816101ff9190610efa565b5060608201518160030190816102159190610efa565b50608082015181600401908161022b9190610efa565b509050507f16677a15a3937eaa20715c4b6f800a091c8287017c94b52d9c9f0ab24d64236c5f5460405161025f919061105d565b60405180910390a15050565b6102736107a7565b60015f8381526020019081526020015f206040518060a00160405290815f82015481526020016001820180546102a890610d2d565b80601f01602080910402602001604051908101604052809291908181526020018280546102d490610d2d565b801561031f5780601f106102f65761010080835404028352916020019161031f565b820191905f5260205f20905b81548152906001019060200180831161030257829003601f168201915b5050505050815260200160028201805461033890610d2d565b80601f016020809104026020016040519081016040528092919081815260200182805461036490610d2d565b80156103af5780601f10610386576101008083540402835291602001916103af565b820191905f5260205f20905b81548152906001019060200180831161039257829003601f168201915b505050505081526020016003820180546103c890610d2d565b80601f01602080910402602001604051908101604052809291908181526020018280546103f490610d2d565b801561043f5780601f106104165761010080835404028352916020019161043f565b820191905f5260205f20905b81548152906001019060200180831161042257829003601f168201915b5050505050815260200160048201805461045890610d2d565b80601f016020809104026020016040519081016040528092919081815260200182805461048490610d2d565b80156104cf5780601f106104a6576101008083540402835291602001916104cf565b820191905f5260205f20905b8154815290600101906020018083116104b257829003601f168201915b5050505050815250509050919050565b5f60015f8581526020019081526020015f209050828160040190816105049190610efa565b50818160030190816105169190610efa565b507f16677a15a3937eaa20715c4b6f800a091c8287017c94b52d9c9f0ab24d64236c84848460405161054a9392919061109c565b60405180910390a150505050565b6001602052805f5260405f205f91509050805f01549080600101805461057d90610d2d565b80601f01602080910402602001604051908101604052809291908181526020018280546105a990610d2d565b80156105f45780601f106105cb576101008083540402835291602001916105f4565b820191905f5260205f20905b8154815290600101906020018083116105d757829003601f168201915b50505050509080600201805461060990610d2d565b80601f016020809104026020016040519081016040528092919081815260200182805461063590610d2d565b80156106805780601f1061065757610100808354040283529160200191610680565b820191905f5260205f20905b81548152906001019060200180831161066357829003601f168201915b50505050509080600301805461069590610d2d565b80601f01602080910402602001604051908101604052809291908181526020018280546106c190610d2d565b801561070c5780601f106106e35761010080835404028352916020019161070c565b820191905f5260205f20905b8154815290600101906020018083116106ef57829003601f168201915b50505050509080600401805461072190610d2d565b80601f016020809104026020016040519081016040528092919081815260200182805461074d90610d2d565b80156107985780601f1061076f57610100808354040283529160200191610798565b820191905f5260205f20905b81548152906001019060200180831161077b57829003601f168201915b5050505050905085565b5f5481565b6040518060a001604052805f8152602001606081526020016060815260200160608152602001606081525090565b5f604051905090565b5f80fd5b5f80fd5b5f80fd5b5f80fd5b5f601f19601f8301169050919050565b7f4e487b71000000000000000000000000000000000000000000000000000000005f52604160045260245ffd5b610834826107ee565b810181811067ffffffffffffffff82111715610853576108526107fe565b5b80604052505050565b5f6108656107d5565b9050610871828261082b565b919050565b5f67ffffffffffffffff8211156108905761088f6107fe565b5b610899826107ee565b9050602081019050919050565b828183375f83830152505050565b5f6108c66108c184610876565b61085c565b9050828152602081018484840111156108e2576108e16107ea565b5b6108ed8482856108a6565b509392505050565b5f82601f830112610909576109086107e6565b5b81356109198482602086016108b4565b91505092915050565b5f8060408385031215610938576109376107de565b5b5f83013567ffffffffffffffff811115610955576109546107e2565b5b610961858286016108f5565b925050602083013567ffffffffffffffff811115610982576109816107e2565b5b61098e858286016108f5565b9150509250929050565b5f819050919050565b6109aa81610998565b81146109b4575f80fd5b50565b5f813590506109c5816109a1565b92915050565b5f602082840312156109e0576109df6107de565b5b5f6109ed848285016109b7565b91505092915050565b6109ff81610998565b82525050565b5f81519050919050565b5f82825260208201905092915050565b5f5b83811015610a3c578082015181840152602081019050610a21565b5f8484015250505050565b5f610a5182610a05565b610a5b8185610a0f565b9350610a6b818560208601610a1f565b610a74816107ee565b840191505092915050565b5f60a083015f830151610a945f8601826109f6565b5060208301518482036020860152610aac8282610a47565b91505060408301518482036040860152610ac68282610a47565b91505060608301518482036060860152610ae08282610a47565b91505060808301518482036080860152610afa8282610a47565b9150508091505092915050565b5f6020820190508181035f830152610b1f8184610a7f565b905092915050565b5f805f60608486031215610b3e57610b3d6107de565b5b5f610b4b868287016109b7565b935050602084013567ffffffffffffffff811115610b6c57610b6b6107e2565b5b610b78868287016108f5565b925050604084013567ffffffffffffffff811115610b9957610b986107e2565b5b610ba5868287016108f5565b9150509250925092565b610bb881610998565b82525050565b5f82825260208201905092915050565b5f610bd882610a05565b610be28185610bbe565b9350610bf2818560208601610a1f565b610bfb816107ee565b840191505092915050565b5f60a082019050610c195f830188610baf565b8181036020830152610c2b8187610bce565b90508181036040830152610c3f8186610bce565b90508181036060830152610c538185610bce565b90508181036080830152610c678184610bce565b90509695505050505050565b5f602082019050610c865f830184610baf565b92915050565b7f4e487b71000000000000000000000000000000000000000000000000000000005f52601160045260245ffd5b5f610cc382610998565b91507fffffffffffffffffffffffffffffffffffffffffffffffffffffffffffffffff8203610cf557610cf4610c8c565b5b600182019050919050565b7f4e487b71000000000000000000000000000000000000000000000000000000005f52602260045260245ffd5b5f6002820490506001821680610d4457607f821691505b602082108103610d5757610d56610d00565b5b50919050565b5f819050815f5260205f209050919050565b5f6020601f8301049050919050565b5f82821b905092915050565b5f60088302610db97fffffffffffffffffffffffffffffffffffffffffffffffffffffffffffffffff82610d7e565b610dc38683610d7e565b95508019841693508086168417925050509392505050565b5f819050919050565b5f610dfe610df9610df484610998565b610ddb565b610998565b9050919050565b5f819050919050565b610e1783610de4565b610e2b610e2382610e05565b848454610d8a565b825550505050565b5f90565b610e3f610e33565b610e4a818484610e0e565b505050565b5b81811015610e6d57610e625f82610e37565b600181019050610e50565b5050565b601f821115610eb257610e8381610d5d565b610e8c84610d6f565b81016020851015610e9b578190505b610eaf610ea785610d6f565b830182610e4f565b50505b505050565b5f82821c905092915050565b5f610ed25f1984600802610eb7565b1980831691505092915050565b5f610eea8383610ec3565b9150826002028217905092915050565b610f0382610a05565b67ffffffffffffffff811115610f1c57610f1b6107fe565b5b610f268254610d2d565b610f31828285610e71565b5f60209050601f831160018114610f62575f8415610f50578287015190505b610f5a8582610edf565b865550610fc1565b601f198416610f7086610d5d565b5f5b82811015610f9757848901518255600182019150602085019450602081019050610f72565b86831015610fb45784890151610fb0601f891682610ec3565b8355505b6001600288020188555050505b505050505050565b7f43726561746564000000000000000000000000000000000000000000000000005f82015250565b5f610ffd600783610bbe565b915061100882610fc9565b602082019050919050565b7f57617265686f75736500000000000000000000000000000000000000000000005f82015250565b5f611047600983610bbe565b915061105282611013565b602082019050919050565b5f6060820190506110705f830184610baf565b818103602083015261108181610ff1565b905081810360408301526110948161103b565b905092915050565b5f6060820190506110af5f830186610baf565b81810360208301526110c18185610bce565b905081810360408301526110d58184610bce565b905094935050505056fea26469706673582212205ce1785f97ba73febacc942ce0d97eab2468bfe1bda15b73577df20b7a4127c964736f6c63430008150033",
  "immutableReferences": {},
  "source": "// SPDX-License-Identifier: MIT\npragma solidity ^0.8.0;\n\ncontract ParcelTracking {\n\n    struct Parcel {\n        uint id;\n        string sender;\n        string receiver;\n        string currentLocation;\n        string status;\n    }\n\n    uint public parcelCount = 0;\n    mapping(uint => Parcel) public parcels;\n\n    // Event for parcel updates\n    event ParcelUpdated(uint id, string status, string location);\n\n    // Add a new parcel\n    function addParcel(string memory _sender, string memory _receiver) public {\n        parcelCount++;\n        parcels[parcelCount] = Parcel(\n            parcelCount,\n            _sender,\n            _receiver,\n            \"Warehouse\",\n            \"Created\"\n        );\n        emit ParcelUpdated(parcelCount, \"Created\", \"Warehouse\");\n    }\n\n    // Update parcel status and location\n    function updateParcel(uint _id, string memory _status, string memory _location) public {\n        Parcel storage parcel = parcels[_id];\n        parcel.status = _status;\n        parcel.currentLocation = _location;\n        emit ParcelUpdated(_id, _status, _location);\n    }\n\n    // Get parcel info\n    function getParcel(uint _id) public view returns (Parcel memory) {\n        return parcels[_id];\n    }\n}\n",
  "sourcePath": "C:\\Users\\Dell\\Desktop\\ParcelDeliveryTracking\\contracts\\ParcelTracking.sol",
  "compiler": {
    "name": "solc",
    "version": "0.8.21+commit.d9974bed.Emscripten.clang"
  },
  "schemaVersion": "3.4.16",
  "updatedAt": "2026-01-13T20:18:06.106Z",
  "devdoc": {
    "kind": "dev",
    "methods": {},
    "version": 1
  },
  "userdoc": {
    "kind": "user",
    "methods": {},
    "version": 1
  }
}